{
  "contractName": "SupplyChain",
  "abi": [
    {
      "inputs": [],
      "payable": false,
      "stateMutability": "nonpayable",
      "type": "constructor"
    },
    {
      "constant": true,
      "inputs": [
        {
          "internalType": "uint256",
          "name": "",
          "type": "uint256"
        }
      ],
      "name": "DIS",
      "outputs": [
        {
          "internalType": "address",
          "name": "addr",
          "type": "address"
        },
        {
          "internalType": "uint256",
          "name": "id",
          "type": "uint256"
        },
        {
          "internalType": "string",
          "name": "name",
          "type": "string"
        },
        {
          "internalType": "string",
          "name": "place",
          "type": "string"
        },
        {
          "internalType": "uint256",
          "name": "Quantity",
          "type": "uint256"
        }
      ],
      "payable": false,
      "stateMutability": "view",
      "type": "function"
    },
    {
      "constant": true,
      "inputs": [
        {
          "internalType": "uint256",
          "name": "",
          "type": "uint256"
        }
      ],
      "name": "DOC",
      "outputs": [
        {
          "internalType": "address",
          "name": "addr",
          "type": "address"
        },
        {
          "internalType": "uint256",
          "name": "id",
          "type": "uint256"
        },
        {
          "internalType": "string",
          "name": "name",
          "type": "string"
        }
      ],
      "payable": false,
      "stateMutability": "view",
      "type": "function"
    },
    {
      "constant": true,
      "inputs": [
        {
          "internalType": "uint256",
          "name": "",
          "type": "uint256"
        }
      ],
      "name": "MAN",
      "outputs": [
        {
          "internalType": "address",
          "name": "addr",
          "type": "address"
        },
        {
          "internalType": "uint256",
          "name": "id",
          "type": "uint256"
        },
        {
          "internalType": "string",
          "name": "name",
          "type": "string"
        },
        {
          "internalType": "string",
          "name": "place",
          "type": "string"
        },
        {
          "internalType": "uint256",
          "name": "Quantity",
          "type": "uint256"
        }
      ],
      "payable": false,
      "stateMutability": "view",
      "type": "function"
    },
    {
      "constant": true,
      "inputs": [
        {
          "internalType": "uint256",
          "name": "",
          "type": "uint256"
        }
      ],
      "name": "MedicineStock",
      "outputs": [
        {
          "internalType": "uint256",
          "name": "id",
          "type": "uint256"
        },
        {
          "internalType": "string",
          "name": "name",
          "type": "string"
        },
        {
          "internalType": "uint256",
          "name": "MANid",
          "type": "uint256"
        },
        {
          "internalType": "uint256",
          "name": "DISid",
          "type": "uint256"
        },
        {
          "internalType": "uint256",
          "name": "RETid",
          "type": "uint256"
        },
        {
          "internalType": "uint256",
          "name": "ManQuantity",
          "type": "uint256"
        },
        {
          "internalType": "uint256",
          "name": "DisQuantity",
          "type": "uint256"
        },
        {
          "internalType": "uint256",
          "name": "RetQuantity",
          "type": "uint256"
        },
        {
          "internalType": "uint256",
          "name": "PatQuantity",
          "type": "uint256"
        },
        {
          "internalType": "enum SupplyChain.STAGE",
          "name": "stage",
          "type": "uint8"
        }
      ],
      "payable": false,
      "stateMutability": "view",
      "type": "function"
    },
    {
      "constant": true,
      "inputs": [],
      "name": "Owner",
      "outputs": [
        {
          "internalType": "address",
          "name": "",
          "type": "address"
        }
      ],
      "payable": false,
      "stateMutability": "view",
      "type": "function"
    },
    {
      "constant": true,
      "inputs": [
        {
          "internalType": "uint256",
          "name": "",
          "type": "uint256"
        }
      ],
      "name": "PAR",
      "outputs": [
        {
          "internalType": "uint256",
          "name": "Retid",
          "type": "uint256"
        },
        {
          "internalType": "uint256",
          "name": "DocId",
          "type": "uint256"
        },
        {
          "internalType": "uint256",
          "name": "PatId",
          "type": "uint256"
        },
        {
          "internalType": "uint256",
          "name": "MedId",
          "type": "uint256"
        },
        {
          "internalType": "uint256",
          "name": "balQ",
          "type": "uint256"
        },
        {
          "internalType": "uint256",
          "name": "presQ",
          "type": "uint256"
        }
      ],
      "payable": false,
      "stateMutability": "view",
      "type": "function"
    },
    {
      "constant": true,
      "inputs": [
        {
          "internalType": "uint256",
          "name": "",
          "type": "uint256"
        }
      ],
      "name": "PAT",
      "outputs": [
        {
          "internalType": "uint256",
          "name": "id",
          "type": "uint256"
        },
        {
          "internalType": "string",
          "name": "name",
          "type": "string"
        },
        {
          "internalType": "string",
          "name": "phoneNo",
          "type": "string"
        },
        {
          "internalType": "string",
          "name": "email",
          "type": "string"
        },
        {
          "internalType": "uint256",
          "name": "docID",
          "type": "uint256"
        },
        {
          "internalType": "string",
          "name": "medName",
          "type": "string"
        },
        {
          "internalType": "uint256",
          "name": "Quantity",
          "type": "uint256"
        }
      ],
      "payable": false,
      "stateMutability": "view",
      "type": "function"
    },
    {
      "constant": true,
      "inputs": [
        {
          "internalType": "uint256",
          "name": "",
          "type": "uint256"
        }
      ],
      "name": "RET",
      "outputs": [
        {
          "internalType": "address",
          "name": "addr",
          "type": "address"
        },
        {
          "internalType": "uint256",
          "name": "id",
          "type": "uint256"
        },
        {
          "internalType": "string",
          "name": "name",
          "type": "string"
        },
        {
          "internalType": "string",
          "name": "place",
          "type": "string"
        },
        {
          "internalType": "uint256",
          "name": "Quantity",
          "type": "uint256"
        }
      ],
      "payable": false,
      "stateMutability": "view",
      "type": "function"
    },
    {
      "constant": true,
      "inputs": [
        {
          "internalType": "uint256",
          "name": "",
          "type": "uint256"
        }
      ],
      "name": "SOL",
      "outputs": [
        {
          "internalType": "uint256",
          "name": "Retid",
          "type": "uint256"
        },
        {
          "internalType": "uint256",
          "name": "DocId",
          "type": "uint256"
        },
        {
          "internalType": "uint256",
          "name": "PatId",
          "type": "uint256"
        },
        {
          "internalType": "uint256",
          "name": "MedId",
          "type": "uint256"
        },
        {
          "internalType": "uint256",
          "name": "Quantity",
          "type": "uint256"
        }
      ],
      "payable": false,
      "stateMutability": "view",
      "type": "function"
    },
    {
      "constant": true,
      "inputs": [],
      "name": "disCtr",
      "outputs": [
        {
          "internalType": "uint256",
          "name": "",
          "type": "uint256"
        }
      ],
      "payable": false,
      "stateMutability": "view",
      "type": "function"
    },
    {
      "constant": true,
      "inputs": [],
      "name": "docCtr",
      "outputs": [
        {
          "internalType": "uint256",
          "name": "",
          "type": "uint256"
        }
      ],
      "payable": false,
      "stateMutability": "view",
      "type": "function"
    },
    {
      "constant": true,
      "inputs": [],
      "name": "manCtr",
      "outputs": [
        {
          "internalType": "uint256",
          "name": "",
          "type": "uint256"
        }
      ],
      "payable": false,
      "stateMutability": "view",
      "type": "function"
    },
    {
      "constant": true,
      "inputs": [],
      "name": "medicineCtr",
      "outputs": [
        {
          "internalType": "uint256",
          "name": "",
          "type": "uint256"
        }
      ],
      "payable": false,
      "stateMutability": "view",
      "type": "function"
    },
    {
      "constant": true,
      "inputs": [],
      "name": "parCtr",
      "outputs": [
        {
          "internalType": "uint256",
          "name": "",
          "type": "uint256"
        }
      ],
      "payable": false,
      "stateMutability": "view",
      "type": "function"
    },
    {
      "constant": true,
      "inputs": [],
      "name": "patCtr",
      "outputs": [
        {
          "internalType": "uint256",
          "name": "",
          "type": "uint256"
        }
      ],
      "payable": false,
      "stateMutability": "view",
      "type": "function"
    },
    {
      "constant": true,
      "inputs": [],
      "name": "retCtr",
      "outputs": [
        {
          "internalType": "uint256",
          "name": "",
          "type": "uint256"
        }
      ],
      "payable": false,
      "stateMutability": "view",
      "type": "function"
    },
    {
      "constant": true,
      "inputs": [],
      "name": "solCtr",
      "outputs": [
        {
          "internalType": "uint256",
          "name": "",
          "type": "uint256"
        }
      ],
      "payable": false,
      "stateMutability": "view",
      "type": "function"
    },
    {
      "constant": true,
      "inputs": [
        {
          "internalType": "uint256",
          "name": "_medicineID",
          "type": "uint256"
        }
      ],
      "name": "showStage",
      "outputs": [
        {
          "internalType": "string",
          "name": "",
          "type": "string"
        }
      ],
      "payable": false,
      "stateMutability": "view",
      "type": "function"
    },
    {
      "constant": false,
      "inputs": [
        {
          "internalType": "address",
          "name": "_address",
          "type": "address"
        },
        {
          "internalType": "string",
          "name": "_name",
          "type": "string"
        }
      ],
      "name": "addDoctor",
      "outputs": [],
      "payable": false,
      "stateMutability": "nonpayable",
      "type": "function"
    },
    {
      "constant": false,
      "inputs": [
        {
          "internalType": "address",
          "name": "_address",
          "type": "address"
        },
        {
          "internalType": "string",
          "name": "_name",
          "type": "string"
        },
        {
          "internalType": "string",
          "name": "_place",
          "type": "string"
        }
      ],
      "name": "addManufacturer",
      "outputs": [],
      "payable": false,
      "stateMutability": "nonpayable",
      "type": "function"
    },
    {
      "constant": false,
      "inputs": [
        {
          "internalType": "address",
          "name": "_address",
          "type": "address"
        },
        {
          "internalType": "string",
          "name": "_name",
          "type": "string"
        },
        {
          "internalType": "string",
          "name": "_place",
          "type": "string"
        }
      ],
      "name": "addDistributor",
      "outputs": [],
      "payable": false,
      "stateMutability": "nonpayable",
      "type": "function"
    },
    {
      "constant": false,
      "inputs": [
        {
          "internalType": "address",
          "name": "_address",
          "type": "address"
        },
        {
          "internalType": "string",
          "name": "_name",
          "type": "string"
        },
        {
          "internalType": "string",
          "name": "_place",
          "type": "string"
        }
      ],
      "name": "addRetailer",
      "outputs": [],
      "payable": false,
      "stateMutability": "nonpayable",
      "type": "function"
    },
    {
      "constant": false,
      "inputs": [
        {
          "internalType": "uint256",
          "name": "_medicineID",
          "type": "uint256"
        },
        {
          "internalType": "uint256",
          "name": "_quantity",
          "type": "uint256"
        }
      ],
      "name": "Manufacturing",
      "outputs": [],
      "payable": false,
      "stateMutability": "nonpayable",
      "type": "function"
    },
    {
      "constant": false,
      "inputs": [
        {
          "internalType": "uint256",
          "name": "_medicineID",
          "type": "uint256"
        },
        {
          "internalType": "uint256",
          "name": "_quantity",
          "type": "uint256"
        }
      ],
      "name": "Distribute",
      "outputs": [],
      "payable": false,
      "stateMutability": "nonpayable",
      "type": "function"
    },
    {
      "constant": false,
      "inputs": [
        {
          "internalType": "uint256",
          "name": "_medicineID",
          "type": "uint256"
        }
      ],
      "name": "Retail",
      "outputs": [],
      "payable": false,
      "stateMutability": "nonpayable",
      "type": "function"
    },
    {
      "constant": false,
      "inputs": [
        {
          "internalType": "string",
          "name": "_patName",
          "type": "string"
        },
        {
          "internalType": "string",
          "name": "_patEmail",
          "type": "string"
        }
      ],
      "name": "sold",
      "outputs": [],
      "payable": false,
      "stateMutability": "nonpayable",
      "type": "function"
    },
    {
      "constant": false,
      "inputs": [
        {
          "internalType": "string",
          "name": "_patName",
          "type": "string"
        },
        {
          "internalType": "string",
          "name": "_patPhNo",
          "type": "string"
        },
        {
          "internalType": "string",
          "name": "_email",
          "type": "string"
        },
        {
          "internalType": "string",
          "name": "_medName",
          "type": "string"
        },
        {
          "internalType": "uint256",
          "name": "_quantity",
          "type": "uint256"
        }
      ],
      "name": "prescribe",
      "outputs": [],
      "payable": false,
      "stateMutability": "nonpayable",
      "type": "function"
    },
    {
      "constant": false,
      "inputs": [
        {
          "internalType": "uint256",
          "name": "_medId",
          "type": "uint256"
        },
        {
          "internalType": "uint256",
          "name": "_quantity",
          "type": "uint256"
        }
      ],
      "name": "addMedicine",
      "outputs": [],
      "payable": false,
      "stateMutability": "nonpayable",
      "type": "function"
    }
  ],
  "bytecode": "0x6080604052600460015560006002556000600355600060045560006005556000600655600060075560006008553480156200003957600080fd5b50604051806101400160405280600181526020016040518060400160405280600681526020017f63726f63696e000000000000000000000000000000000000000000000000000081525081526020016000815260200160008152602001600081526020016000815260200160008152602001600081526020016000815260200160006005811115620000c757fe5b81525060096000600181526020019081526020016000206000820151816000015560208201518160010190805190602001906200010692919062000548565b5060408201518160020155606082015181600301556080820151816004015560a0820151816005015560c0820151816006015560e0820151816007015561010082015181600801556101208201518160090160006101000a81548160ff021916908360058111156200017457fe5b0217905550905050604051806101400160405280600281526020016040518060400160405280600481526020017f646f6c6f00000000000000000000000000000000000000000000000000000000815250815260200160008152602001600081526020016000815260200160008152602001600081526020016000815260200160008152602001600060058111156200020957fe5b81525060096000600281526020019081526020016000206000820151816000015560208201518160010190805190602001906200024892919062000548565b5060408201518160020155606082015181600301556080820151816004015560a0820151816005015560c0820151816006015560e0820151816007015561010082015181600801556101208201518160090160006101000a81548160ff02191690836005811115620002b657fe5b0217905550905050604051806101400160405280600381526020016040518060400160405280600681526020017f63616c706f6c0000000000000000000000000000000000000000000000000000815250815260200160008152602001600081526020016000815260200160008152602001600081526020016000815260200160008152602001600060058111156200034b57fe5b81525060096000600381526020019081526020016000206000820151816000015560208201518160010190805190602001906200038a92919062000548565b5060408201518160020155606082015181600301556080820151816004015560a0820151816005015560c0820151816006015560e0820151816007015561010082015181600801556101208201518160090160006101000a81548160ff02191690836005811115620003f857fe5b0217905550905050604051806101400160405280600481526020016040518060400160405280600881526020017f6d6f6e7465666578000000000000000000000000000000000000000000000000815250815260200160008152602001600081526020016000815260200160008152602001600081526020016000815260200160008152602001600060058111156200048d57fe5b8152506009600060048152602001908152602001600020600082015181600001556020820151816001019080519060200190620004cc92919062000548565b5060408201518160020155606082015181600301556080820151816004015560a0820151816005015560c0820151816006015560e0820151816007015561010082015181600801556101208201518160090160006101000a81548160ff021916908360058111156200053a57fe5b0217905550905050620005f7565b828054600181600116156101000203166002900490600052602060002090601f016020900481019282601f106200058b57805160ff1916838001178555620005bc565b82800160010185558215620005bc579182015b82811115620005bb5782518255916020019190600101906200059e565b5b509050620005cb9190620005cf565b5090565b620005f491905b80821115620005f0576000816000905550600101620005d6565b5090565b90565b613cfb80620006076000396000f3fe608060405234801561001057600080fd5b50600436106101c45760003560e01c80638b425b84116100f9578063cc40306911610097578063d86d264b11610071578063d86d264b14611316578063deb7322514611334578063e101a2e014611486578063eb1a06b51461152d576101c4565b8063cc4030691461112c578063ced9eb6b14611280578063d6b2117f146112b8576101c4565b8063a2062e6f116100d3578063a2062e6f14610d59578063a95f29d914610e3a578063b4a99a4e14610e58578063cb57230614610ea2576101c4565b80638b425b8414610b035780639583d1eb14610d0357806397d7965e14610d3b576101c4565b806349f89149116101665780636a992c9f116101405780636a992c9f146107265780637cf1e445146108985780637e43d94d14610973578063857ddb0414610991576101c4565b806349f891491461054f5780635152eeed1461056d57806359bf286f146105d2576101c4565b80632bdb2e6b116101a25780632bdb2e6b146104c75780633551dece146104e55780633d753a1c14610503578063438e9c4d14610531576101c4565b8063254c0493146101c95780632a4af440146102015780632b0187ac14610373575b600080fd5b6101ff600480360360408110156101df57600080fd5b810190808035906020019092919080359060200190929190505050611621565b005b6103716004803603606081101561021757600080fd5b81019080803573ffffffffffffffffffffffffffffffffffffffff1690602001909291908035906020019064010000000081111561025457600080fd5b82018360208201111561026657600080fd5b8035906020019184600183028401116401000000008311171561028857600080fd5b91908080601f016020809104026020016040519081016040528093929190818152602001838380828437600081840152601f19601f820116905080830192505050505050509192919290803590602001906401000000008111156102eb57600080fd5b8201836020820111156102fd57600080fd5b8035906020019184600183028401116401000000008311171561031f57600080fd5b91908080601f016020809104026020016040519081016040528093929190818152602001838380828437600081840152601f19601f820116905080830192505050505050509192919290505050611740565b005b61039f6004803603602081101561038957600080fd5b8101908080359060200190929190505050611844565b604051808673ffffffffffffffffffffffffffffffffffffffff1673ffffffffffffffffffffffffffffffffffffffff1681526020018581526020018060200180602001848152602001838103835286818151815260200191508051906020019080838360005b83811015610421578082015181840152602081019050610406565b50505050905090810190601f16801561044e5780820380516001836020036101000a031916815260200191505b50838103825285818151815260200191508051906020019080838360005b8381101561048757808201518184015260208101905061046c565b50505050905090810190601f1680156104b45780820380516001836020036101000a031916815260200191505b5097505050505050505060405180910390f35b6104cf6119ca565b6040518082815260200191505060405180910390f35b6104ed6119d0565b6040518082815260200191505060405180910390f35b61052f6004803603602081101561051957600080fd5b81019080803590602001909291905050506119d6565b005b610539611ba5565b6040518082815260200191505060405180910390f35b610557611bab565b6040518082815260200191505060405180910390f35b6105996004803603602081101561058357600080fd5b8101908080359060200190929190505050611bb1565b60405180878152602001868152602001858152602001848152602001838152602001828152602001965050505050505060405180910390f35b6105fe600480360360208110156105e857600080fd5b8101908080359060200190929190505050611bed565b604051808673ffffffffffffffffffffffffffffffffffffffff1673ffffffffffffffffffffffffffffffffffffffff1681526020018581526020018060200180602001848152602001838103835286818151815260200191508051906020019080838360005b83811015610680578082015181840152602081019050610665565b50505050905090810190601f1680156106ad5780820380516001836020036101000a031916815260200191505b50838103825285818151815260200191508051906020019080838360005b838110156106e65780820151818401526020810190506106cb565b50505050905090810190601f1680156107135780820380516001836020036101000a031916815260200191505b5097505050505050505060405180910390f35b6108966004803603606081101561073c57600080fd5b81019080803573ffffffffffffffffffffffffffffffffffffffff1690602001909291908035906020019064010000000081111561077957600080fd5b82018360208201111561078b57600080fd5b803590602001918460018302840111640100000000831117156107ad57600080fd5b91908080601f016020809104026020016040519081016040528093929190818152602001838380828437600081840152601f19601f8201169050808301925050505050505091929192908035906020019064010000000081111561081057600080fd5b82018360208201111561082257600080fd5b8035906020019184600183028401116401000000008311171561084457600080fd5b91908080601f016020809104026020016040519081016040528093929190818152602001838380828437600081840152601f19601f820116905080830192505050505050509192919290505050611d73565b005b610971600480360360408110156108ae57600080fd5b81019080803573ffffffffffffffffffffffffffffffffffffffff169060200190929190803590602001906401000000008111156108eb57600080fd5b8201836020820111156108fd57600080fd5b8035906020019184600183028401116401000000008311171561091f57600080fd5b91908080601f016020809104026020016040519081016040528093929190818152602001838380828437600081840152601f19601f820116905080830192505050505050509192919290505050611e77565b005b61097b611f46565b6040518082815260200191505060405180910390f35b610b01600480360360608110156109a757600080fd5b81019080803573ffffffffffffffffffffffffffffffffffffffff169060200190929190803590602001906401000000008111156109e457600080fd5b8201836020820111156109f657600080fd5b80359060200191846001830284011164010000000083111715610a1857600080fd5b91908080601f016020809104026020016040519081016040528093929190818152602001838380828437600081840152601f19601f82011690508083019250505050505050919291929080359060200190640100000000811115610a7b57600080fd5b820183602082011115610a8d57600080fd5b80359060200191846001830284011164010000000083111715610aaf57600080fd5b91908080601f016020809104026020016040519081016040528093929190818152602001838380828437600081840152601f19601f820116905080830192505050505050509192919290505050611f4c565b005b610b2f60048036036020811015610b1957600080fd5b8101908080359060200190929190505050612050565b604051808881526020018060200180602001806020018781526020018060200186815260200185810385528b818151815260200191508051906020019080838360005b83811015610b8d578082015181840152602081019050610b72565b50505050905090810190601f168015610bba5780820380516001836020036101000a031916815260200191505b5085810384528a818151815260200191508051906020019080838360005b83811015610bf3578082015181840152602081019050610bd8565b50505050905090810190601f168015610c205780820380516001836020036101000a031916815260200191505b50858103835289818151815260200191508051906020019080838360005b83811015610c59578082015181840152602081019050610c3e565b50505050905090810190601f168015610c865780820380516001836020036101000a031916815260200191505b50858103825287818151815260200191508051906020019080838360005b83811015610cbf578082015181840152602081019050610ca4565b50505050905090810190601f168015610cec5780820380516001836020036101000a031916815260200191505b509b50505050505050505050505060405180910390f35b610d3960048036036040811015610d1957600080fd5b8101908080359060200190929190803590602001909291905050506122f2565b005b610d4361243d565b6040518082815260200191505060405180910390f35b610d8560048036036020811015610d6f57600080fd5b8101908080359060200190929190505050612443565b604051808473ffffffffffffffffffffffffffffffffffffffff1673ffffffffffffffffffffffffffffffffffffffff16815260200183815260200180602001828103825283818151815260200191508051906020019080838360005b83811015610dfd578082015181840152602081019050610de2565b50505050905090810190601f168015610e2a5780820380516001836020036101000a031916815260200191505b5094505050505060405180910390f35b610e42612525565b6040518082815260200191505060405180910390f35b610e6061252b565b604051808273ffffffffffffffffffffffffffffffffffffffff1673ffffffffffffffffffffffffffffffffffffffff16815260200191505060405180910390f35b61112a600480360360a0811015610eb857600080fd5b8101908080359060200190640100000000811115610ed557600080fd5b820183602082011115610ee757600080fd5b80359060200191846001830284011164010000000083111715610f0957600080fd5b91908080601f016020809104026020016040519081016040528093929190818152602001838380828437600081840152601f19601f82011690508083019250505050505050919291929080359060200190640100000000811115610f6c57600080fd5b820183602082011115610f7e57600080fd5b80359060200191846001830284011164010000000083111715610fa057600080fd5b91908080601f016020809104026020016040519081016040528093929190818152602001838380828437600081840152601f19601f8201169050808301925050505050505091929192908035906020019064010000000081111561100357600080fd5b82018360208201111561101557600080fd5b8035906020019184600183028401116401000000008311171561103757600080fd5b91908080601f016020809104026020016040519081016040528093929190818152602001838380828437600081840152601f19601f8201169050808301925050505050505091929192908035906020019064010000000081111561109a57600080fd5b8201836020820111156110ac57600080fd5b803590602001918460018302840111640100000000831117156110ce57600080fd5b91908080601f016020809104026020016040519081016040528093929190818152602001838380828437600081840152601f19601f82011690508083019250505050505050919291929080359060200190929190505050612550565b005b6111586004803603602081101561114257600080fd5b81019080803590602001909291905050506126a6565b604051808673ffffffffffffffffffffffffffffffffffffffff1673ffffffffffffffffffffffffffffffffffffffff1681526020018581526020018060200180602001848152602001838103835286818151815260200191508051906020019080838360005b838110156111da5780820151818401526020810190506111bf565b50505050905090810190601f1680156112075780820380516001836020036101000a031916815260200191505b50838103825285818151815260200191508051906020019080838360005b83811015611240578082015181840152602081019050611225565b50505050905090810190601f16801561126d5780820380516001836020036101000a031916815260200191505b5097505050505050505060405180910390f35b6112b66004803603604081101561129657600080fd5b81019080803590602001909291908035906020019092919050505061282c565b005b6112e4600480360360208110156112ce57600080fd5b8101908080359060200190929190505050612876565b604051808681526020018581526020018481526020018381526020018281526020019550505050505060405180910390f35b61131e6128ac565b6040518082815260200191505060405180910390f35b6114846004803603604081101561134a57600080fd5b810190808035906020019064010000000081111561136757600080fd5b82018360208201111561137957600080fd5b8035906020019184600183028401116401000000008311171561139b57600080fd5b91908080601f016020809104026020016040519081016040528093929190818152602001838380828437600081840152601f19601f820116905080830192505050505050509192919290803590602001906401000000008111156113fe57600080fd5b82018360208201111561141057600080fd5b8035906020019184600183028401116401000000008311171561143257600080fd5b91908080601f016020809104026020016040519081016040528093929190818152602001838380828437600081840152601f19601f8201169050808301925050505050505091929192905050506128b2565b005b6114b26004803603602081101561149c57600080fd5b8101908080359060200190929190505050612ee9565b6040518080602001828103825283818151815260200191508051906020019080838360005b838110156114f25780820151818401526020810190506114d7565b50505050905090810190601f16801561151f5780820380516001836020036101000a031916815260200191505b509250505060405180910390f35b6115596004803603602081101561154357600080fd5b81019080803590602001909291905050506131f9565b604051808b8152602001806020018a815260200189815260200188815260200187815260200186815260200185815260200184815260200183600581111561159d57fe5b60ff16815260200182810382528b818151815260200191508051906020019080838360005b838110156115dd5780820151818401526020810190506115c2565b50505050905090810190601f16801561160a5780820380516001836020036101000a031916815260200191505b509b50505050505050505050505060405180910390f35b60008211801561163357506001548211155b61163c57600080fd5b6000611647336132f2565b90506000811161165657600080fd5b6000821161166357600080fd5b6000600581111561167057fe5b6009600085815260200190815260200160002060090160009054906101000a900460ff16600581111561169f57fe5b146116a957600080fd5b80600960008581526020019081526020016000206002018190555081600960008581526020019081526020016000206005018190555081600a60008381526020019081526020016000206004016000828254019250508190555060016009600085815260200190815260200160002060090160006101000a81548160ff0219169083600581111561173657fe5b0217905550505050565b6003600081548092919060010191905055506040518060a001604052808473ffffffffffffffffffffffffffffffffffffffff16815260200160035481526020018381526020018281526020016000815250600b6000600354815260200190815260200160002060008201518160000160006101000a81548173ffffffffffffffffffffffffffffffffffffffff021916908373ffffffffffffffffffffffffffffffffffffffff160217905550602082015181600101556040820151816002019080519060200190611814929190613c21565b506060820151816003019080519060200190611831929190613c21565b5060808201518160040155905050505050565b600b6020528060005260406000206000915090508060000160009054906101000a900473ffffffffffffffffffffffffffffffffffffffff1690806001015490806002018054600181600116156101000203166002900480601f01602080910402602001604051908101604052809291908181526020018280546001816001161561010002031660029004801561191c5780601f106118f15761010080835404028352916020019161191c565b820191906000526020600020905b8154815290600101906020018083116118ff57829003601f168201915b505050505090806003018054600181600116156101000203166002900480601f0160208091040260200160405190810160405280929190818152602001828054600181600116156101000203166002900480156119ba5780601f1061198f576101008083540402835291602001916119ba565b820191906000526020600020905b81548152906001019060200180831161199d57829003601f168201915b5050505050908060040154905085565b60035481565b60085481565b6000811180156119e857506001548111155b6119f157600080fd5b60006119fc336133b3565b905060008111611a0b57600080fd5b60006009600083815260200190815260200160002060070154905060008111611a3357600080fd5b806009600085815260200190815260200160002060070181905550600060096000858152602001908152602001600020600301549050600082600b600084815260200190815260200160002060040154031115611ae25781600b60008381526020019081526020016000206004015403600b6000838152602001908152602001600020600401819055508160096000868152602001908152602001600020600601600082825403925050819055505b60026005811115611aef57fe5b6009600086815260200190815260200160002060090160009054906101000a900460ff166005811115611b1e57fe5b14611b2857600080fd5b82600960008681526020019081526020016000206004018190555081600c60008581526020019081526020016000206004016000828254019250508190555060036009600086815260200190815260200160002060090160006101000a81548160ff02191690836005811115611b9a57fe5b021790555050505050565b60025481565b60055481565b60106020528060005260406000206000915090508060000154908060010154908060020154908060030154908060040154908060050154905086565b600c6020528060005260406000206000915090508060000160009054906101000a900473ffffffffffffffffffffffffffffffffffffffff1690806001015490806002018054600181600116156101000203166002900480601f016020809104026020016040519081016040528092919081815260200182805460018160011615610100020316600290048015611cc55780601f10611c9a57610100808354040283529160200191611cc5565b820191906000526020600020905b815481529060010190602001808311611ca857829003601f168201915b505050505090806003018054600181600116156101000203166002900480601f016020809104026020016040519081016040528092919081815260200182805460018160011615610100020316600290048015611d635780601f10611d3857610100808354040283529160200191611d63565b820191906000526020600020905b815481529060010190602001808311611d4657829003601f168201915b5050505050908060040154905085565b6002600081548092919060010191905055506040518060a001604052808473ffffffffffffffffffffffffffffffffffffffff16815260200160025481526020018381526020018281526020016000815250600a6000600254815260200190815260200160002060008201518160000160006101000a81548173ffffffffffffffffffffffffffffffffffffffff021916908373ffffffffffffffffffffffffffffffffffffffff160217905550602082015181600101556040820151816002019080519060200190611e47929190613c21565b506060820151816003019080519060200190611e64929190613c21565b5060808201518160040155905050505050565b60056000815480929190600101919050555060405180606001604052808373ffffffffffffffffffffffffffffffffffffffff168152602001600554815260200182815250600e6000600554815260200190815260200160002060008201518160000160006101000a81548173ffffffffffffffffffffffffffffffffffffffff021916908373ffffffffffffffffffffffffffffffffffffffff160217905550602082015181600101556040820151816002019080519060200190611f3e929190613c21565b509050505050565b60045481565b6004600081548092919060010191905055506040518060a001604052808473ffffffffffffffffffffffffffffffffffffffff16815260200160045481526020018381526020018281526020016000815250600c6000600454815260200190815260200160002060008201518160000160006101000a81548173ffffffffffffffffffffffffffffffffffffffff021916908373ffffffffffffffffffffffffffffffffffffffff160217905550602082015181600101556040820151816002019080519060200190612020929190613c21565b50606082015181600301908051906020019061203d929190613c21565b5060808201518160040155905050505050565b600d602052806000526040600020600091509050806000015490806001018054600181600116156101000203166002900480601f0160208091040260200160405190810160405280929190818152602001828054600181600116156101000203166002900480156121025780601f106120d757610100808354040283529160200191612102565b820191906000526020600020905b8154815290600101906020018083116120e557829003601f168201915b505050505090806002018054600181600116156101000203166002900480601f0160208091040260200160405190810160405280929190818152602001828054600181600116156101000203166002900480156121a05780601f10612175576101008083540402835291602001916121a0565b820191906000526020600020905b81548152906001019060200180831161218357829003601f168201915b505050505090806003018054600181600116156101000203166002900480601f01602080910402602001604051908101604052809291908181526020018280546001816001161561010002031660029004801561223e5780601f106122135761010080835404028352916020019161223e565b820191906000526020600020905b81548152906001019060200180831161222157829003601f168201915b505050505090806004015490806005018054600181600116156101000203166002900480601f0160208091040260200160405190810160405280929190818152602001828054600181600116156101000203166002900480156122e25780601f106122b7576101008083540402835291602001916122e2565b820191906000526020600020905b8154815290600101906020018083116122c557829003601f168201915b5050505050908060060154905087565b60008211801561230457506001548211155b61230d57600080fd5b600061231833613474565b90506000811161232757600080fd5b6000821161233457600080fd5b81600960008581526020019081526020016000206006018190555060096000848152602001908152602001600020600501546009600085815260200190815260200160002050506001600581111561238857fe5b6009600085815260200190815260200160002060090160009054906101000a900460ff1660058111156123b757fe5b146123c157600080fd5b80600960008581526020019081526020016000206003018190555081600b60008381526020019081526020016000206004016000828254019250508190555060026009600085815260200190815260200160002060090160006101000a81548160ff0219169083600581111561243357fe5b0217905550505050565b60075481565b600e6020528060005260406000206000915090508060000160009054906101000a900473ffffffffffffffffffffffffffffffffffffffff1690806001015490806002018054600181600116156101000203166002900480601f01602080910402602001604051908101604052809291908181526020018280546001816001161561010002031660029004801561251b5780601f106124f05761010080835404028352916020019161251b565b820191906000526020600020905b8154815290600101906020018083116124fe57829003601f168201915b5050505050905083565b60015481565b6000809054906101000a900473ffffffffffffffffffffffffffffffffffffffff1681565b600061255b33613535565b90506000811161256a57600080fd5b6000821161257757600080fd5b6000612582846135f6565b90506000811161259157600080fd5b6006600081548092919060010191905055506040518060e00160405280600654815260200188815260200187815260200186815260200183815260200185815260200184815250600d60006006548152602001908152602001600020600082015181600001556020820151816001019080519060200190612613929190613c21565b506040820151816002019080519060200190612630929190613c21565b50606082015181600301908051906020019061264d929190613c21565b506080820151816004015560a0820151816005019080519060200190612674929190613c21565b5060c0820151816006015590505082600960008381526020019081526020016000206008018190555050505050505050565b600a6020528060005260406000206000915090508060000160009054906101000a900473ffffffffffffffffffffffffffffffffffffffff1690806001015490806002018054600181600116156101000203166002900480601f01602080910402602001604051908101604052809291908181526020018280546001816001161561010002031660029004801561277e5780601f106127535761010080835404028352916020019161277e565b820191906000526020600020905b81548152906001019060200180831161276157829003601f168201915b505050505090806003018054600181600116156101000203166002900480601f01602080910402602001604051908101604052809291908181526020018280546001816001161561010002031660029004801561281c5780601f106127f15761010080835404028352916020019161281c565b820191906000526020600020905b8154815290600101906020018083116127ff57829003601f168201915b5050505050908060040154905085565b600060025411801561284057506000600354115b801561284e57506000600454115b61285757600080fd5b8060096000848152602001908152602001600020600701819055505050565b600f6020528060005260406000206000915090508060000154908060010154908060020154908060030154908060040154905085565b60065481565b60006128bd336133b3565b9050600081116128cc57600080fd5b60006128d88484613820565b9050600081116128e757600080fd5b6000600d60008381526020019081526020016000206004015490506060600d60008481526020019081526020016000206005018054600181600116156101000203166002900480601f0160208091040260200160405190810160405280929190818152602001828054600181600116156101000203166002900480156129ae5780601f10612983576101008083540402835291602001916129ae565b820191906000526020600020905b81548152906001019060200180831161299157829003601f168201915b5050505050905060006129c0826135f6565b9050600360058111156129cf57fe5b6009600083815260200190815260200160002060090160009054906101000a900460ff1660058111156129fe57fe5b1480612a43575060046005811115612a1257fe5b6009600083815260200190815260200160002060090160009054906101000a900460ff166005811115612a4157fe5b145b612a4c57600080fd5b6000600d60008681526020019081526020016000206006015490506000600c600088815260200190815260200160002060040154905081600960008581526020019081526020016000206008018190555060036005811115612aaa57fe5b6009600085815260200190815260200160002060090160009054906101000a900460ff166005811115612ad957fe5b1415612cbf57808211612be65781600960008581526020019081526020016000206007016000828254039250508190555060056009600085815260200190815260200160002060090160006101000a81548160ff02191690836005811115612b3d57fe5b0217905550600060096000858152602001908152602001600020600801819055506007600081548092919060010191905055506040518060a0016040528088815260200186815260200187815260200184815260200183815250600f600060075481526020019081526020016000206000820151816000015560208201518160010155604082015181600201556060820151816003015560808201518160040155905050612cba565b6000818303905060046009600086815260200190815260200160002060090160006101000a81548160ff02191690836005811115612c2057fe5b02179055506008600081548092919060010191905055506040518060c0016040528089815260200187815260200188815260200185815260200182815260200184815250601060006008548152602001908152602001600020600082015181600001556020820151816001015560408201518160020155606082015181600301556080820151816004015560a08201518160050155905050505b612ede565b60046005811115612ccc57fe5b6009600085815260200190815260200160002060090160009054906101000a900460ff166005811115612cfb57fe5b1415612edd57808211612e085781600960008581526020019081526020016000206007016000828254039250508190555060056009600085815260200190815260200160002060090160006101000a81548160ff02191690836005811115612d5f57fe5b0217905550600060096000858152602001908152602001600020600801819055506007600081548092919060010191905055506040518060a0016040528088815260200186815260200187815260200184815260200183815250600f600060075481526020019081526020016000206000820151816000015560208201518160010155604082015181600201556060820151816003015560808201518160040155905050612edc565b6000818303905060046009600086815260200190815260200160002060090160006101000a81548160ff02191690836005811115612e4257fe5b02179055506008600081548092919060010191905055506040518060c0016040528089815260200187815260200188815260200185815260200182815260200184815250601060006008548152602001908152602001600020600082015181600001556020820151816001015560408201518160020155606082015181600301556080820151816004015560a08201518160050155905050505b5b5b505050505050505050565b6060600060015411612efa57600080fd5b60006005811115612f0757fe5b6009600084815260200190815260200160002060090160009054906101000a900460ff166005811115612f3657fe5b1415612f79576040518060400160405280601081526020017f4d65646963696e65204f7264657265640000000000000000000000000000000081525090506131f4565b60016005811115612f8657fe5b6009600084815260200190815260200160002060090160009054906101000a900460ff166005811115612fb557fe5b1415612ff8576040518060400160405280601381526020017f4d616e75666163747572696e672053746167650000000000000000000000000081525090506131f4565b6002600581111561300557fe5b6009600084815260200190815260200160002060090160009054906101000a900460ff16600581111561303457fe5b1415613077576040518060400160405280601281526020017f446973747269627574696f6e205374616765000000000000000000000000000081525090506131f4565b6003600581111561308457fe5b6009600084815260200190815260200160002060090160009054906101000a900460ff1660058111156130b357fe5b14156130f6576040518060400160405280600c81526020017f52657461696c205374616765000000000000000000000000000000000000000081525090506131f4565b6004600581111561310357fe5b6009600084815260200190815260200160002060090160009054906101000a900460ff16600581111561313257fe5b1415613175576040518060400160405280600e81526020017f5061727469616c6c7920536f6c6400000000000000000000000000000000000081525090506131f4565b60058081111561318157fe5b6009600084815260200190815260200160002060090160009054906101000a900460ff1660058111156131b057fe5b14156131f3576040518060400160405280600d81526020017f4d65646963696e6520536f6c640000000000000000000000000000000000000081525090506131f4565b5b919050565b6009602052806000526040600020600091509050806000015490806001018054600181600116156101000203166002900480601f0160208091040260200160405190810160405280929190818152602001828054600181600116156101000203166002900480156132ab5780601f10613280576101008083540402835291602001916132ab565b820191906000526020600020905b81548152906001019060200180831161328e57829003601f168201915b5050505050908060020154908060030154908060040154908060050154908060060154908060070154908060080154908060090160009054906101000a900460ff1690508a565b6000806002541161330257600080fd5b6000600190505b60025481116133a8578273ffffffffffffffffffffffffffffffffffffffff16600a600083815260200190815260200160002060000160009054906101000a900473ffffffffffffffffffffffffffffffffffffffff1673ffffffffffffffffffffffffffffffffffffffff16141561339b57600a6000828152602001908152602001600020600101549150506133ae565b8080600101915050613309565b50600090505b919050565b600080600454116133c357600080fd5b6000600190505b6004548111613469578273ffffffffffffffffffffffffffffffffffffffff16600c600083815260200190815260200160002060000160009054906101000a900473ffffffffffffffffffffffffffffffffffffffff1673ffffffffffffffffffffffffffffffffffffffff16141561345c57600c60008281526020019081526020016000206001015491505061346f565b80806001019150506133ca565b50600090505b919050565b6000806003541161348457600080fd5b6000600190505b600354811161352a578273ffffffffffffffffffffffffffffffffffffffff16600b600083815260200190815260200160002060000160009054906101000a900473ffffffffffffffffffffffffffffffffffffffff1673ffffffffffffffffffffffffffffffffffffffff16141561351d57600b600082815260200190815260200160002060010154915050613530565b808060010191505061348b565b50600090505b919050565b6000806005541161354557600080fd5b6000600190505b60055481116135eb578273ffffffffffffffffffffffffffffffffffffffff16600e600083815260200190815260200160002060000160009054906101000a900473ffffffffffffffffffffffffffffffffffffffff1673ffffffffffffffffffffffffffffffffffffffff1614156135de57600e6000828152602001908152602001600020600101549150506135f1565b808060010191505061354c565b50600090505b919050565b6000806001541161360657600080fd5b60606000600190505b600154811161381457600960008281526020019081526020016000206001018054600181600116156101000203166002900480601f0160208091040260200160405190810160405280929190818152602001828054600181600116156101000203166002900480156136c25780601f10613697576101008083540402835291602001916136c2565b820191906000526020600020905b8154815290600101906020018083116136a557829003601f168201915b50505050509150836040516020018080602001828103825283818151815260200191508051906020019080838360005b8381101561370d5780820151818401526020810190506136f2565b50505050905090810190601f16801561373a5780820380516001836020036101000a031916815260200191505b509250505060405160208183030381529060405280519060200120826040516020018080602001828103825283818151815260200191508051906020019080838360005b8381101561379957808201518184015260208101905061377e565b50505050905090810190601f1680156137c65780820380516001836020036101000a031916815260200191505b50925050506040516020818303038152906040528051906020012014156138075760096000828152602001908152602001600020600001549250505061381b565b808060010191505061360f565b5060009150505b919050565b6000806006541161383057600080fd5b6000600190505b6006548111613c15576060600d60008381526020019081526020016000206001018054600181600116156101000203166002900480601f0160208091040260200160405190810160405280929190818152602001828054600181600116156101000203166002900480156138ec5780601f106138c1576101008083540402835291602001916138ec565b820191906000526020600020905b8154815290600101906020018083116138cf57829003601f168201915b505050505090506060600d60008481526020019081526020016000206003018054600181600116156101000203166002900480601f01602080910402602001604051908101604052809291908181526020018280546001816001161561010002031660029004801561399f5780601f106139745761010080835404028352916020019161399f565b820191906000526020600020905b81548152906001019060200180831161398257829003601f168201915b50505050509050856040516020018080602001828103825283818151815260200191508051906020019080838360005b838110156139ea5780820151818401526020810190506139cf565b50505050905090810190601f168015613a175780820380516001836020036101000a031916815260200191505b509250505060405160208183030381529060405280519060200120826040516020018080602001828103825283818151815260200191508051906020019080838360005b83811015613a76578082015181840152602081019050613a5b565b50505050905090810190601f168015613aa35780820380516001836020036101000a031916815260200191505b509250505060405160208183030381529060405280519060200120148015613be05750846040516020018080602001828103825283818151815260200191508051906020019080838360005b83811015613b0a578082015181840152602081019050613aef565b50505050905090810190601f168015613b375780820380516001836020036101000a031916815260200191505b509250505060405160208183030381529060405280519060200120816040516020018080602001828103825283818151815260200191508051906020019080838360005b83811015613b96578082015181840152602081019050613b7b565b50505050905090810190601f168015613bc35780820380516001836020036101000a031916815260200191505b509250505060405160208183030381529060405280519060200120145b15613c0657600d6000848152602001908152602001600020600001549350505050613c1b565b50508080600101915050613837565b50600090505b92915050565b828054600181600116156101000203166002900490600052602060002090601f016020900481019282601f10613c6257805160ff1916838001178555613c90565b82800160010185558215613c90579182015b82811115613c8f578251825591602001919060010190613c74565b5b509050613c9d9190613ca1565b5090565b613cc391905b80821115613cbf576000816000905550600101613ca7565b5090565b9056fea265627a7a72315820a84519b89a8ee0ee41f3b26aa28a0cd3c919a778f6bac4a0a0c365b971bc852564736f6c63430005100032",
  "source": "pragma solidity >=0.4.22 <0.9.0;\n\ncontract SupplyChain {\n    //Smart Contract owner will be the person who deploys the contract only he can authorize various roles like retailer, Manufacturer,etc\n    address public Owner;\n\n    //note this constructor will be called when smart contract will be deployed on blockchain\n    \n\n    //Roles (flow of pharma supply chain)\n    // RawMaterialSupplier; //This is where Manufacturer will get raw materials to make medicines\n    // Manufacturer;  //Various WHO guidelines should be followed by this person\n    // Distributor; //This guy distributes the medicines to retailers\n    // Retailer; //Normal customer buys from the retailer\n\n    //modifier to make sure only the owner is using the function\n    modifier onlyByOwner() {\n        \n        _;\n    }\n\n    //stages of a medicine in pharma supply chain\n    enum STAGE {\n        Init,\n        Manufacture,\n        Distribution,\n        Retail,\n        PartiallySold,\n        sold\n    }\n    //using this we are going to track every single medicine the owner orders\n\n    //Medicine count\n    uint256 public medicineCtr = 4;\n    //Raw material supplier count\n    //uint256 public rmsCtr = 0;\n    //Manufacturer count\n    uint256 public manCtr = 0;\n    //distributor count\n    uint256 public disCtr = 0;\n    //retailer count\n    uint256 public retCtr = 0;\n    uint256 public docCtr = 0;\n    uint256 public patCtr = 0;\n    uint256 public solCtr = 0;\n    uint256 public parCtr = 0;\n    //To store information about the medicine\n    struct medicine {\n        uint256 id; //unique medicine id\n        string name; //name of the medicine        \n        //uint256 RMSid; //id of the Raw Material supplier for this particular medicine\n        uint256 MANid; //id of the Manufacturer for this particular medicine\n        uint256 DISid; //id of the distributor for this particular medicine\n        uint256 RETid; //id of the retailer for this particular medicine\n        uint256 ManQuantity;\n        uint256 DisQuantity;\n        uint256 RetQuantity;\n        uint256 PatQuantity;\n        STAGE stage; //current medicine stage\n    }\n\n    //To store all the medicines on the blockchain\n    mapping(uint256 => medicine) public MedicineStock;\n    constructor() public{\n        MedicineStock[1] = medicine(1,\"crocin\",0,0,0,0,0,0,0,STAGE.Init);\n    MedicineStock[2] = medicine(2,\"dolo\",0,0,0,0,0,0,0,STAGE.Init);\n    MedicineStock[3] = medicine(3,\"calpol\",0,0,0,0,0,0,0,STAGE.Init);\n    MedicineStock[4] = medicine(4,\"montefex\",0,0,0,0,0,0,0,STAGE.Init);\n    }\n    \n    //To show status to client applications\n    function showStage(uint256 _medicineID)\n        public\n        view\n        returns (string memory)\n    {\n        require(medicineCtr > 0);\n        if (MedicineStock[_medicineID].stage == STAGE.Init)\n            return \"Medicine Ordered\";\n        //else if (MedicineStock[_medicineID].stage == STAGE.RawMaterialSupply)\n           // return \"Raw Material Supply Stage\";\n        else if (MedicineStock[_medicineID].stage == STAGE.Manufacture)\n            return \"Manufacturing Stage\";\n        else if (MedicineStock[_medicineID].stage == STAGE.Distribution)\n            return \"Distribution Stage\";\n        else if (MedicineStock[_medicineID].stage == STAGE.Retail)\n            return \"Retail Stage\";\n        else if (MedicineStock[_medicineID].stage == STAGE.PartiallySold)\n            return \"Partially Sold\";\n        else if (MedicineStock[_medicineID].stage == STAGE.sold)\n            return \"Medicine Sold\";\n    }\n\n    //To store information about raw material supplier\n    //struct rawMaterialSupplier {\n    //     address addr;\n    //     uint256 id; //supplier id\n    //     string name; //Name of the raw material supplier\n    //     string place; //Place the raw material supplier is based in\n    //     uint256 Quantity;\n    // }\n\n    //To store all the raw material suppliers on the blockchain\n    //mapping(uint256 => rawMaterialSupplier) public RMS;\n\n    //To store information about manufacturer\n    struct manufacturer {\n        address addr;\n        uint256 id; //manufacturer id\n        string name; //Name of the manufacturer\n        string place; //Place the manufacturer is based in\n        uint256 Quantity;\n    }\n\n    //To store all the manufacturers on the blockchain\n    mapping(uint256 => manufacturer) public MAN;\n\n    //To store information about distributor\n    struct distributor {\n        address addr;\n        uint256 id; //distributor id\n        string name; //Name of the distributor\n        string place; //Place the distributor is based in\n        uint256 Quantity;\n    }\n\n    //To store all the distributors on the blockchain\n    mapping(uint256 => distributor) public DIS;\n\n    //To store information about retailer\n    struct retailer {\n        address addr;\n        uint256 id; //retailer id\n        string name; //Name of the retailer\n        string place; //Place the retailer is based in\n        uint256 Quantity;\n    }\n\n    //To store all the retailers on the blockchain\n    mapping(uint256 => retailer) public RET;\n\n    //patient\n    struct patient {        \n        uint256 id; //patient id\n        string name; //Name of the patient\n        string phoneNo;\n        string email;\n        uint256 docID;\n        string medName;\n        uint256 Quantity;        \n    }\n    mapping(uint256 => patient) public PAT;\n    \n    //Doctor\n    struct doctor {\n        address addr;\n        uint256 id; //doctor id\n        string name; //Name of the doctor                \n    }\n    \n    mapping(uint256 => doctor) public DOC;\n    \n    struct soldMed {\n        uint256 Retid; \n        uint256 DocId;\n        uint256 PatId;\n        uint256 MedId;\n        uint256 Quantity;              \n    }\n    \n    mapping(uint256 => soldMed) public SOL;\n    struct parPat {\n        uint256 Retid; \n        uint256 DocId;\n        uint256 PatId;\n        uint256 MedId;\n        uint256 balQ;\n        uint256 presQ;\n        }\n    \n    mapping(uint256 => parPat) public PAR;\n    function addDoctor(\n        address _address,\n        string memory _name\n    ) public onlyByOwner() {\n        docCtr++;\n        DOC[docCtr]=doctor(_address,docCtr,_name);\n    }\n\n    //To add manufacturer. Only contract owner can add a new manufacturer\n    function addManufacturer(\n        address _address,\n        string memory _name,\n        string memory _place\n    ) public onlyByOwner() {\n        manCtr++;\n        MAN[manCtr] = manufacturer(_address, manCtr, _name, _place,0);\n    }\n\n    //To add distributor. Only contract owner can add a new distributor\n    function addDistributor(\n        address _address,\n        string memory _name,\n        string memory _place\n    ) public onlyByOwner() {\n        disCtr++;\n        DIS[disCtr] = distributor(_address, disCtr, _name, _place,0);\n    }\n\n    //To add retailer. Only contract owner can add a new retailer\n    function addRetailer(\n        address _address,\n        string memory _name,\n        string memory _place\n    ) public onlyByOwner() {\n        retCtr++;\n        RET[retCtr] = retailer(_address, retCtr, _name, _place,0);\n    }\n\n    \n\n    //To manufacture medicine\n    function Manufacturing(uint256 _medicineID,uint256 _quantity) public {\n        require(_medicineID > 0 && _medicineID <= medicineCtr);\n        uint256 _id = findMAN(msg.sender);\n        require(_id > 0);\n        require(_quantity>0);\n        require(MedicineStock[_medicineID].stage == STAGE.Init);\n        MedicineStock[_medicineID].MANid = _id;\n        MedicineStock[_medicineID].ManQuantity = _quantity;\n        MAN[_id].Quantity+=_quantity;\n        MedicineStock[_medicineID].stage = STAGE.Manufacture;\n    }\n\n    //To check if Manufacturer is available in the blockchain\n    function findMAN(address _address) private view returns (uint256) {\n        require(manCtr > 0);\n        for (uint256 i = 1; i <= manCtr; i++) {\n            if (MAN[i].addr == _address) return MAN[i].id;\n        }\n        return 0;\n    }\n\n    //To supply medicines from Manufacturer to distributor\n    function Distribute(uint256 _medicineID,uint256 _quantity) public {\n        require(_medicineID > 0 && _medicineID <= medicineCtr);\n        uint256 _id = findDIS(msg.sender);\n        require(_id > 0);\n        require(_quantity>0);\n\n        MedicineStock[_medicineID].DisQuantity = _quantity;\n        if( MedicineStock[_medicineID].DisQuantity< MedicineStock[_medicineID].ManQuantity){\n            //error\n        }\n        require(MedicineStock[_medicineID].stage == STAGE.Manufacture);\n        MedicineStock[_medicineID].DISid = _id;\n        DIS[_id].Quantity+=_quantity;\n        MedicineStock[_medicineID].stage = STAGE.Distribution;\n    }\n\n    //To check if distributor is available in the blockchain\n    function findDIS(address _address) private view returns (uint256) {\n        require(disCtr > 0);\n        for (uint256 i = 1; i <= disCtr; i++) {\n            if (DIS[i].addr == _address) return DIS[i].id;\n        }\n        return 0;\n    }\n\n    //To supply medicines from distributor to retailer\n    function Retail(uint256 _medicineID) public {\n        \n        require(_medicineID > 0 && _medicineID <= medicineCtr);\n        uint256 _id = findRET(msg.sender);\n        require(_id > 0);\n        uint256 _quantity=MedicineStock[_id].RetQuantity;\n        require(_quantity>0);\n        \n        MedicineStock[_medicineID].RetQuantity = _quantity;\n        //DIS[MED[ID].DISid].id\n        uint256 distId=MedicineStock[_medicineID].DISid;\n        //uint256 distQuant=DIS[disId].Quantity;\n        if(DIS[distId].Quantity- _quantity>0) {DIS[distId].Quantity=DIS[distId].Quantity- _quantity;\n        MedicineStock[_medicineID].DisQuantity-=_quantity;}\n\n        //else \n        \n\n        require(MedicineStock[_medicineID].stage == STAGE.Distribution);\n        MedicineStock[_medicineID].RETid = _id;\n        RET[_id].Quantity+=_quantity;\n        MedicineStock[_medicineID].stage = STAGE.Retail;\n    }\n\n    //To check if retailer is available in the blockchain\n    function findRET(address _address) private view returns (uint256) {\n        require(retCtr > 0);\n        for (uint256 i = 1; i <= retCtr; i++) {\n            if (RET[i].addr == _address) return RET[i].id;\n        }\n        return 0;\n    }\n    \n\n    //To sell medicines from retailer to consumer\n    function sold(string memory _patName,string memory _patEmail) public {\n        uint256 _RetId = findRET(msg.sender);\n        require(_RetId > 0);                \n        uint256 _patId=findPat(_patName,_patEmail);\n        require(_patId > 0);\n        uint256 _docID=PAT[_patId].docID;\n        string memory _medName=PAT[_patId].medName;\n        uint256 _medId = findMed(_medName);\n        require(MedicineStock[_medId].stage==STAGE.Retail||MedicineStock[_medId].stage==STAGE.PartiallySold);\n        uint256 _patQuan = PAT[_patId].Quantity;\n        uint256 _retQuan = RET[_RetId].Quantity;\n        MedicineStock[_medId].PatQuantity = _patQuan;\n        //require(_id == MedicineStock[_medId].RETid); //Only correct retailer can mark medicine as sold\n        if(MedicineStock[_medId].stage == STAGE.Retail)\n        {\n\n        if(_patQuan <= _retQuan){\n            MedicineStock[_medId].RetQuantity-=_patQuan;\n            MedicineStock[_medId].stage = STAGE.sold;\n            MedicineStock[_medId].PatQuantity = 0;\n            solCtr++;\n        \n            SOL[solCtr]=soldMed(_RetId,_docID,_patId,_medId,_patQuan);  \n\n        }\n        else{\n            uint256 bal=_patQuan-_retQuan;\n            MedicineStock[_medId].stage = STAGE.PartiallySold;\n            parCtr++;\n        \n            PAR[parCtr]=parPat(_RetId,_docID,_patId,_medId,bal,_patQuan);  \n        }\n        }\n        else if(MedicineStock[_medId].stage == STAGE.PartiallySold)\n        {\n            if(_patQuan <= _retQuan){\n            MedicineStock[_medId].RetQuantity-=_patQuan;\n            MedicineStock[_medId].stage = STAGE.sold;\n            MedicineStock[_medId].PatQuantity = 0;\n            solCtr++;\n        \n            SOL[solCtr]=soldMed(_RetId,_docID,_patId,_medId,_patQuan);  \n\n        }\n        else{\n            uint256 bal=_patQuan-_retQuan;\n            MedicineStock[_medId].stage = STAGE.PartiallySold;\n            parCtr++;\n        \n            PAR[parCtr]=parPat(_RetId,_docID,_patId,_medId,bal,_patQuan);  \n        }\n        }\n    }\n    function findPat(string memory _name,string memory _email) private view returns (uint256) {\n        require(patCtr > 0);\n        for (uint256 i = 1; i <= patCtr; i++) {\n            string memory _patName=PAT[i].name;\n            string memory _patEmail=PAT[i].email;\n            if (keccak256(abi.encode(_patName)) == keccak256(abi.encode(_name))&&keccak256(abi.encode(_patEmail)) == keccak256(abi.encode(_email))) \n                return PAT[i].id;\n        }\n        return 0;\n    }\n\n    function prescribe(string memory _patName,string memory _patPhNo,string memory _email,string memory _medName,uint256 _quantity) public{        \n        uint256 _docId = findDoc(msg.sender);\n        require(_docId>0);\n        require(_quantity>0);        \n        uint256 _medId=findMed(_medName);\n        require(_medId>0);\n        patCtr++;\n        PAT[patCtr] = patient(patCtr, _patName, _patPhNo,_email,_docId,_medName,_quantity);\n        MedicineStock[_medId].PatQuantity=_quantity;\n    }\n    function findDoc(address _address) private view returns (uint256) {\n        require(docCtr > 0);\n        for (uint256 i = 1; i <= docCtr; i++) {\n            if (DOC[i].addr == _address) return DOC[i].id;\n        }\n        return 0;\n    }\n    function findMed(string memory _name) private view returns (uint256) {\n        require(medicineCtr > 0);\n        string memory _medName;\n        for (uint256 i = 1; i <= medicineCtr; i++) {\n            _medName=MedicineStock[i].name;\n            if (keccak256(abi.encode(_medName)) == keccak256(abi.encode(_name))) return MedicineStock[i].id;\n        }\n        return 0;\n    }\n\n    // To add new medicines to the stock\n    function addMedicine(uint256 _medId,uint256 _quantity)\n        public\n        onlyByOwner()        \n    {\n        //js changes\n        require((manCtr > 0) && (disCtr > 0) && (retCtr > 0));                \n        MedicineStock[_medId].RetQuantity=_quantity;\n    }\n}",
  "sourcePath": "/home/sam/supply-chain/contracts/SupplyChain.sol",
  "compiler": {
    "name": "solc",
    "version": "0.5.16+commit.9c3226ce.Emscripten.clang"
  },
  "schemaVersion": "3.4.6",
  "updatedAt": "2022-03-29T09:15:53.715Z",
  "networkType": "ethereum",
  "devdoc": {
    "methods": {}
  },
  "userdoc": {
    "methods": {}
  }
}